:020000040800F2
:1000000000280020151500084D12000853120008A2
:10001000591200085F120008651200080000000075
:100020000000000000000000000000006B1200084B
:100030007712000800000000831200088F120008E9
:100040005D1500085D1500085D1500085D150008C8
:100050005D1500085D1500085D1500085D150008B8
:100060005D1500085D1500085D1500085D150008A8
:100070005D1500085D1500085D1500085D15000898
:100080005D1500085D1500085D1500085D15000888
:100090005D1500085D1500085D1500085D15000878
:1000A0005D1500085D1500085D1500085D15000868
:1000B0009D1200085D150008000000005D15000895
:1000C0005D15000800000000000000005D1500083C
:1000D000000000005D1500085D150008000000002C
:1000E0005D1500085D1500085D15000800000000A2
:1000F0000000000000000000000000000000000000
:0C01000000000000000000005FF808F1A3
:10010C0010B5054C237833B9044B13B10448AFF345
:10011C0000800123237010BD80000020000000002F
:10012C00402D000808B5034B1BB103490348AFF33E
:10013C00008008BD0000000084000020402D000855
:10014C0080B400AF044B00221A60034B00225A60AB
:10015C0000BFBD4680BC7047E800002080B586B06B
:10016C0000AFF860B9607A60BB683B4AA2FB03231E
:10017C00DB08BB607B68384AA2FB0323DB087B608F
:10018C00142002F0FBFC03463B613B69FA681A60E1
:10019C003B69BA685A603B697A689A603B6900228D
:1001AC001A612E4B1B68002B06D12C4A3B6913603D
:1001BC002A4A3B6953604BE0284B1B685B68BA6862
:1001CC009A420FD2254B1A683B691A61234B1B6864
:1001DC005968224B1B68BA688A1A5A601F4A3B69D5
:1001EC00136035E01D4B1B687B617B695B68BA68EB
:1001FC00D31ABB6008E07B691B695B68BA68D31AC9
:10020C00BB607B691B697B617B691B69002B05D01B
:10021C007B691B695B68BA689A42ECD27B691A6984
:10022C003B691A617B691B69002B08D07B691B69D0
:10023C0059687B691B69BA688A1A5A6002E0074AD6
:10024C003B6953607B693A691A613B69BA685A60C9
:10025C001837BD4680BD00BFCDCCCCCCE80000200B
:10026C0080B400AF114B1B68002B1BD00F4B1B68CD
:10027C005B68002B05D00D4B1B685A68013A5A601D
:10028C0011E00A4B1B68DA680132DA60074B1B6815
:10029C009B68002B07D0054B1A68044B1B689268AF
:1002AC005A6000E000BFBD4680BC7047E8000020EB
:1002BC00B0B586B000AF1B4B1B68DB68002B2ED093
:1002CC00184B1B681B689847164B1B68DA68013A79
:1002DC00DA60144B1B689B68002B02D100F024F8E9
:1002EC001DE0104B1B68DB68002B18D10D4B1B68F5
:1002FC003C1D1D460FCD0FC42B68236000F014F875
:10030C007868FA6813469B0013445B001946FA6838
:10031C0013469B0013445B001A46FFF71FFF183768
:10032C00BD46B0BDE800002080B582B000AF0D4BDB
:10033C001B68002B12D00B4B1B687B60094B1B6896
:10034C001B69084A1360786802F020FC054B1B6897
:10035C00002B04D1034B00225A6000E000BF083789
:10036C00BD4680BDE800002090B583B000AF0346C9
:10037C003960FB711346BB80FA79FB790B49895CB8
:10038C000B4AD154FA79FB790A49895C074AD15452
:10039C00FC79BB881946386801F0C6FB03461A463F
:1003AC00044B1A5500BF0C37BD4690BD14010020FC
:1003BC00080100202001002080B483B000AF034668
:1003CC00FB71FB79034AD35C18460C37BD4680BCE5
:1003DC00704700BFF000002080B483B000AF03462C
:1003EC00FB71FB79034A0021D15400BF0C37BD4689
:1003FC0080BC7047F000002080B582B000AF4FF495
:10040C00806235490020FFF7AFFF4FF4006232499C
:10041C000120FFF7A9FF4FF480522F490220FFF76C
:10042C00A3FF03233B600023FB714BE0FB792B4ABA
:10043C00D25CFB792A49CB5C9A4240D1FB79284AA1
:10044C00D25CFB792749CB5C9A4238D1FB79264A9E
:10045C00D25CFB792349CB5C9A4214D0FA79FB79B4
:10046C002049895C204AD154FB791E4AD35C002B6D
:10047C0025D1FB791D4A0121D154FB791C4AC82195
:10048C0042F823101BE0FB79164AD35C002B16D1E3
:10049C00FB79174A52F82320013A154941F82320D9
:1004AC00FB79134A52F82330002B08D1FB790F4A01
:1004BC000121D154FB790E4A322142F82310FB79E9
:1004CC000133FB71FB793A689A42AFDC00BF00BF85
:1004DC000837BD4680BD00BF000801400801002060
:1004EC001401002020010020FC000020F00000205E
:1004FC002C01002080B500AF002000F029FE03463F
:10050C00002B00F0E880754B1B78042B00F2D58093
:10051C0001A252F823F000BF390500086505000858
:10052C00BB050008170600086B0600086C4B1B681F
:10053C006C4A13606C4B1B686C4A1360694B1B68EC
:10054C006A4A12681146184600F0AEFB00F044FFF0
:10055C00624B01221A70B9E000F03EFF614B1B6840
:10056C00013B604A13605F4B1A68604B1B68013B90
:10057C005E490B605D4B1B681946104600F094FBFE
:10058C00584B1B68002B40F09A8000F035FF584BFD
:10059C001B68544A1360534B1B68544A126811462B
:1005AC00184600F081FB4D4B02221A7087E000F0D8
:1005BC0023FF4C4B1B68013B4A4A1360494B1A689A
:1005CC004A4B1B68013B49490B60484B1B68194659
:1005DC00104600F069FB434B1B68002B71D100F0F7
:1005EC00DBFE3F4B1B683F4A13603F4B1B683F4A87
:1005FC0013603C4B1B683D4A12681146184600F0CC
:10060C0053FB364B03221A705BE000F0C5FE354BF2
:10061C001B68013B334A1360324B1A68334B1B681F
:10062C00013B32490B60314B1B681946104600F0F8
:10063C003BFB2C4B1B68002B45D100F0BDFE2C4B1B
:10064C001B68284A1360274B1B68284A12681146FE
:10065C00184600F029FB214B04221A7033E000F0FD
:10066C00ABFE204B1B68013B1E4A13601D4B1A68E6
:10067C001E4B1B68013B1D490B601C4B1B6819462C
:10068C00104600F011FB174B1B68002B1DD100F01E
:10069C00A3FE134B1B68134A1360134B1B68134ABE
:1006AC001360104B1B68114A12681146184600F073
:1006BC00FBFA0A4B01221A7007E000BF06E000BFEC
:1006CC0004E000BF02E000BF00E000BF4FF47A710D
:1006DC00002000F0F5FC00BF80BD00BFA000002092
:1006EC00000000209C000020080000205401002085
:1006FC000400002080B500AF754B1B78153B032B15
:10070C0000F2E38001A252F823F000BF2907000891
:10071C0049070008D707000865080008C821012010
:10072C0000F0CEFC00F078FE694B16221A70694B73
:10073C001B680221184600F0B7FAC7E0012000F050
:10074C0007FD0346002B05D000F066FEC8210120F2
:10075C0000F0B6FC0020FFF72FFE0346002B05D15E
:10076C000120FFF729FE0346002B04D042F2107142
:10077C00022000F0A5FC0020FFF71EFE0346002B14
:10078C0007D0534B17221A7000F06EFE0020FFF7B3
:10079C0023FE0120FFF710FE0346002B0ED04D4B1D
:1007AC001B6801334B4A13604A4B1B68632B02D9FD
:1007BC00484B01221A600120FFF70EFE454B1B68C7
:1007CC000221184600F070FA80E0012000F0C0FC15
:1007DC000346002B05D000F047FEC821012000F095
:1007EC006FFC0020FFF7E8FD0346002B05D101202C
:1007FC00FFF7E2FD0346002B04D042F210710220F9
:10080C0000F05EFC0020FFF7D7FD0346002B07D05D
:10081C002F4B18221A7000F04FFE0020FFF7DCFD62
:10082C000120FFF7C9FD0346002B0ED02A4B1B6895
:10083C000133294A1360284B1B68632B02D9264BC2
:10084C0001221A600120FFF7C7FD234B1B6803210F
:10085C00184600F029FA39E0012000F079FC034633
:10086C00002B05D000F028FEC821012000F028FC48
:10087C000020FFF7A1FD0346002B05D10120FFF757
:10088C009BFD0346002B04D042F21071022000F0B5
:10089C0017FC0120FFF790FD0346002B0ED00F4BE9
:1008AC001B6801330D4A13600C4B1B68632B02D978
:1008BC000A4B01221A600120FFF78EFD074B1B68C3
:1008CC000421184600F0F0F900E000BF00BF80BD25
:1008DC00A0000020080000200400002000000020E0
:1008EC0080B500AF324B1B78042B02DC002B04DCF0
:1008FC0059E0163B022B56D815E00020FFF75CFDA3
:10090C000346002B51D042F21071022000F0D8FBAC
:10091C00274B15221A700020FFF75EFD2021254879
:10092C0001F031F941E00220FFF746FD0346002BB0
:10093C0005D1022000F00CFC0346002B1ED01C4BF2
:10094C0000221A700121002000F012FC1A4B1A68C8
:10095C001A4B1B681A441A4B1B689A4206D0164B4A
:10096C001A68164B1B681344154A13600220FFF7D4
:10097C0033FD20210F4801F006F917E00C4B1B78D2
:10098C00182B10D10020FFF717FD0346002B0AD0BF
:10099C00074B00221A700121002000F0E9FB002017
:1009AC00FFF71AFD02E000BF00E000BF00BF80BDF2
:1009BC00A0000020000801400000002004000020DE
:1009CC000800002080B485B000AFF8607A601A4649
:1009DC000B467B8113463B81174AFB681360164A12
:1009EC007B899380144A7B689360134A3B8993817B
:1009FC00114ABB691361104ABB8B93820E4A3B6A46
:100A0C0093610D4ABB8C93830B4ABB6A13620A4AEF
:100A1C00BB8D9384084A3B6B9362074ABB8E9385CC
:100A2C00054ABB6B1363044ABB8F938600BF143714
:100A3C00BD4680BC704700BF5801002090B583B004
:100A4C0000AF0446084611461A462346FB7103467E
:100A5C00BB710B467B7113463B711E4B1B681D4AC9
:100A6C009188FA79184601F076F81A4B9B68194A66
:100A7C009189BA79184601F06EF8164B1B69154A24
:100A8C00918A7A79184601F066F8124B9B69114AE3
:100A9C00918B3A79184601F05EF80E4B1B6A0D4AA1
:100AAC00918C3A7E184601F056F80A4B9B6A094A1B
:100ABC00918D3A7F184601F04EF8064B1B6B054A98
:100ACC00918E97F82020184601F045F800BF0C379E
:100ADC00BD4690BD5801002080B584B004AF012301
:100AEC00029301230193012300930123012201218D
:100AFC000120FFF7A3FF00BFBD4680BD80B586B0C7
:100B0C0004AF0346FB71FB79092B00F2998001A21B
:100B1C0052F823F0490B0008630B00087D0B00080A
:100B2C00970B0008B10B0008CB0B0008E50B000875
:100B3C00FF0B0008190C0008330C0008012302936A
:100B4C0000230193002300930023002200210020A6
:100B5C00FFF774FF74E00123029301230193012337
:100B6C0000930123002200210120FFF767FF67E0BB
:100B7C0000230293012301930023009300230122FD
:100B8C0000210020FFF75AFF5AE0002302930123B3
:100B9C000193012300930023002200210020FFF782
:100BAC004DFF4DE00023029300230193012300939A
:100BBC000123002200210120FFF740FF40E0002329
:100BCC0002930023019301230093002300220121AF
:100BDC000020FFF733FF33E000230293002301933F
:100BEC00002300930023002201210020FFF726FFA1
:100BFC0026E0012302930123019301230093012397
:100C0C00002200210020FFF719FF19E000230293B6
:100C1C0000230193002300930023002200210020D5
:100C2C00FFF70CFF0CE00023029300230193012338
:100C3C0000930023002200210020FFF7FFFE00BFDD
:100C4C0000BF0837BD4680BD90B583B000AF0446E9
:100C5C00084611461A462346FB710346BB710B46E8
:100C6C007B7113463B71FB791A4640210D4800F00D
:100C7C0072FFBB791A4680210A4800F06CFF7B7921
:100C8C001A464FF48071074800F065FF3B791A460D
:100C9C004FF40071034800F05EFF00BF0C37BD46F7
:100CAC0090BD00BF0008014080B483B000AF7860F5
:100CBC0039607B68164AA2FB0323DB08DAB2154BBA
:100CCC001A707968124BA3FB0123DA0813469B00B8
:100CDC0013445B00CA1AD2B20E4B5A703B680C4AD2
:100CEC00A2FB0323DB08DAB20A4B9A703968084B73
:100CFC00A3FB0123DA0813469B0013445B00CA1ABA
:100D0C00D2B2044BDA7000BF0C37BD4680BC7047C2
:100D1C00CDCCCCCCA400002080B500AF2A4B1B78E6
:100D2C00032B4FD801A252F823F000BF490D000845
:100D3C006B0D00088D0D0008AF0D0008FFF7CCFE01
:100D4C000123012201210020FFF77EFF1F4B1B789E
:100D5C001846FFF7D3FE1C4B01221A7032E0FFF746
:100D6C00BBFE0123012200210120FFF76DFF174B71
:100D7C005B781846FFF7C2FE134B02221A7021E073
:100D8C00FFF7AAFE0123002201210120FFF75CFFDF
:100D9C000E4B9B781846FFF7B1FE0B4B03221A70D3
:100DAC0010E0FFF799FE0023012201210120FFF73B
:100DBC004BFF064BDB781846FFF7A0FE024B0022D8
:100DCC001A7000BF00BF80BDA1000020A40000204D
:100DDC0080B582B000AF78607B681A68064B1B68E0
:100DEC009A4205D100F08AF9FFF706FBFFF738FAB3
:100DFC0000BF0837BD4680BD9401002080B500AF10
:100E0C002021024800F0BFFE00BF80BD0008014059
:100E1C0080B58AB00AAF00F09DFB00F053F800F0EB
:100E2C00D9F800F08BF8204801F0F2FA402309932E
:100E3C001E4B0893202307931C4B069310230593FA
:100E4C001A4B049308230393184B02930423019326
:100E5C00164B00930223154A01211448FFF7B2FDEB
:100E6C006421002000F02CF9FFF76AF94FF4967218
:100E7C0000210F48FFF772F90A2200210D48FFF7F5
:100E8C006DF90A2200210C48FFF768F91E22002197
:100E9C000A48FFF763F9642200210948FFF75EF95D
:100EAC00FFF706FAFCE700BF94010020000C01409C
:100EBC00090E00080105000801070008ED080008EC
:100ECC00250D000880B590B000AF07F1180328225B
:100EDC000021184601F062FE3B1D00221A605A6088
:100EEC009A60DA601A610223BB610123BB62102392
:100EFC00FB6200237B6307F11803184600F05CFECD
:100F0C000346002B01D000F0D5F80F237B600023A3
:100F1C00BB600023FB6000233B6100237B613B1D16
:100F2C000021184601F0C8F80346002B01D000F050
:100F3C00C1F800BF4037BD4680BD000080B586B00B
:100F4C0000AF07F1080300221A605A609A60DA6059
:100F5C003B4600221A605A601D4B4FF080421A60CB
:100F6C001B4B41F63F725A60194B00229A60184B8A
:100F7C000922DA60164B00221A61154B00229A6185
:100F8C00134801F0F5F90346002B01D000F092F85C
:100F9C004FF48053BB6007F1080319460C4801F06D
:100FAC0073FB0346002B01D000F084F800233B6058
:100FBC0000237B603B461946054801F04BFD034678
:100FCC00002B01D000F076F800BF1837BD4680BD6D
:100FDC009401002080B588B000AF07F11003002207
:100FEC001A605A609A60DA602F4B9B692E4A43F064
:100FFC00200393612C4B9B6903F02003FB60FB687F
:10100C00294B9B69284A43F004039361264B9B6947
:10101C0003F00403BB60BB68234B9B69224A43F07B
:10102C0008039361204B9B6903F008037B607B688A
:10103C0000224FF478711D4800F08DFD002241F61E
:10104C00FF711B4800F087FD4FF478733B6101235F
:10105C007B610023BB610223FB6107F1100319467E
:10106C00124800F0E7FB41F6FF733B6101237B6103
:10107C000023BB610223FB6107F1100319460C48E6
:10108C0000F0D8FB4FF4E0533B6100237B6101235C
:10109C00BB6107F110031946044800F0CBFB00BFFD
:1010AC002037BD4680BD00BF001002400008014043
:1010BC00000C014080B400AF72B600BFFEE7000028
:1010CC0080B483B000AF786039603B68084AA2FBFB
:1010DC000323DA0807497B6841F82320064A7B681A
:1010EC00134400221A7000BF0C37BD4680BC7047F9
:1010FC00CDCCCCCCA8000020D000002080B483B094
:10110C0000AF00237B6016E00F4A7B6852F8233057
:10111C005A1E0D497B6841F823200B4A7B6852F814
:10112C002330002B04D1094A7B68134401221A7026
:10113C007B6801337B607B68092BE5D900BF00BF5E
:10114C000C37BD4680BC7047A8000020D0000020A2
:10115C0080B483B000AF7860044A7B6813441B787A
:10116C0018460C37BD4680BC704700BFD00000202D
:10117C0080B483B000AF78600B46FB70044A7B6888
:10118C001344FA781A7000BF0C37BD4680BC704708
:10119C00D000002080B485B000AF154B9B69144A79
:1011AC0043F001039361124B9B6903F00103BB6095
:1011BC00BB680F4BDB690E4A43F08053D3610C4B79
:1011CC00DB6903F080537B607B680A4B5B68FB60D8
:1011DC00FB6823F0E063FB60FB6843F00073FB608B
:1011EC00044AFB68536000BF1437BD4680BC70478F
:1011FC00001002400000014080B584B000AF786060
:10120C007B681B68B3F1804F13D10C4BDB690B4A25
:10121C0043F00103D361094BDB6903F00103FB606D
:10122C00FB68002201211C2000F0CDFA1C2000F0EC
:10123C00E6FA00BF1037BD4680BD00BF001002406B
:10124C0080B400AFFEE780B400AFFEE780B400AF1F
:10125C00FEE780B400AFFEE780B400AFFEE780B4D9
:10126C0000AF00BFBD4680BC704780B400AF00BF6C
:10127C00BD4680BC704780B400AF00BFBD4680BC8B
:10128C00704780B500AF00F0ABF900BF80BD000027
:10129C0080B500AF024801F007F900BF80BD00BF68
:1012AC009401002080B586B000AF7860144A154BCD
:1012BC00D31A7B617B693B61134B1B68002B02D1FA
:1012CC00114B124A1A60104B1A687B6813443A6926
:1012DC009A4207D201F028FC03460C221A604FF008
:1012EC00FF3309E0084B1B68FB60074B1A687B68EF
:1012FC001344054A1360FB6818461837BD4680BD79
:10130C000028002000040000DC000020F001002078
:10131C0080B400AF00BFBD4680BC704790B583B0B1
:10132C0000AF0446084611461A462346FB71034695
:10133C00BB710B467B7113463B71FB791A468021BE
:10134C00144800F008FCBB791A464FF48071114820
:10135C0000F001FC7B791A464FF400710D4800F047
:10136C00FAFB3B791A464FF480610A4800F0F3FB14
:10137C003B7E1A464FF40061064800F0ECFB3B7FC5
:10138C001A464FF48051034800F0E5FB00BF0C37C0
:10139C00BD4690BD000C014080B582B002AF002369
:1013AC000193002300930123012200210020FFF769
:1013BC00B5FF00BFBD4680BD80B582B002AF002333
:1013CC000193012300930023012200210020FFF749
:1013DC00A5FF00BFBD4680BD80B582B002AF012322
:1013EC000193002300930023002200210120FFF72A
:1013FC0095FF00BFBD4680BD80B582B002AF012312
:10140C000193002300930023002201210020FFF709
:10141C0085FF00BFBD4680BD80B582B002AF114BC9
:10142C001B78012B0DD10123019300230093002382
:10143C00012200210020FFF771FF0A4B00221A70D5
:10144C000CE00023019300230093002300220021D1
:10145C000020FFF763FF034B01221A7000BFBD464B
:10146C0080BD00BF1000002080B582B002AF114BD0
:10147C001B78012B0DD10023019301230093002332
:10148C00002201210020FFF749FF0A4B00221A70AD
:10149C000CE0002301930023009300230022002181
:1014AC000020FFF73BFF034B01221A7000BFBD4623
:1014BC0080BD00BF1000002080B582B002AF114B80
:1014CC001B78012B0DD100230193002300930123E2
:1014DC00002200210120FFF721FF0A4B00221A7085
:1014EC000CE0002301930023009300230022002131
:1014FC000020FFF713FF034B01221A7000BFBD46FB
:10150C0080BD00BF10000020FFF702FF0B480C4904
:10151C000C4A002302E0D458C4500433C4188C4243
:10152C00F9D3094A094C002301E013600432A242AA
:10153C00FBD301F0FFFAFFF76BFC704700000020B3
:10154C0080000020842D000880000020F001002085
:10155C00FEE7000080B500AF084B1B68074A43F05C
:10156C0010031360032000F023F90F2000F008F89B
:10157C00FFF710FE0023184680BD00BF002002407C
:10158C0080B582B000AF7860124B1A68124B1B7892
:10159C0019464FF47A73B3FBF1F3B2FBF3F318462D
:1015AC0000F03BF90346002B01D001230EE07B68D1
:1015BC000F2B0AD8002279684FF0FF3000F003F9A6
:1015CC00064A7B681360002300E0012318460837A5
:1015DC00BD4680BD0C000020180000201400002027
:1015EC0080B400AF054B1B781A46054B1B6813449F
:1015FC00034A136000BFBD4680BC70471800002032
:10160C00DC01002080B400AF024B1B681846BD46BD
:10161C0080BC7047DC01002080B485B000AF7860DE
:10162C007B6803F00703FB600C4BDB68BB60BA689C
:10163C004FF6FF031340BB60FB681A02BB681343F1
:10164C0043F0BF6343F40033BB60044ABB68D36010
:10165C0000BF1437BD4680BC704700BF00ED00E0F2
:10166C0080B400AF044BDB681B0A03F00703184679
:10167C00BD4680BC704700BF00ED00E080B483B075
:10168C0000AF0346FB7197F90730002B0BDBFB799E
:10169C0003F01F02064997F907305B09012000FA95
:1016AC0002F241F8232000BF0C37BD4680BC7047C6
:1016BC0000E100E080B483B000AF03463960FB71F9
:1016CC0097F90730002B0ADB3B68DAB20C4997F923
:1016DC0007301201D2B20B4483F800230AE03B68B6
:1016EC00DAB20849FB7903F00F03043B1201D2B2C2
:1016FC000B441A7600BF0C37BD4680BC704700BF48
:10170C0000E100E000ED00E080B489B000AFF860CB
:10171C00B9607A60FB6803F00703FB61FB69C3F1F6
:10172C000703042B28BF0423BB61FB690433062B7E
:10173C0002D9FB69033B00E000237B614FF0FF32D1
:10174C00BB6902FA03F3DA43BB681A407B699A401F
:10175C004FF0FF317B6901FA03F3D9437B680B40EF
:10176C00134318462437BD4680BC704780B582B001
:10177C0000AF78607B68013BB3F1807F01D301231C
:10178C000FE00A4A7B68013B53600F214FF0FF309A
:10179C00FFF790FF054B00229A60044B07221A605A
:1017AC00002318460837BD4680BD00BF10E000E09E
:1017BC0080B582B000AF78607868FFF72DFF00BF6E
:1017CC000837BD4680BD80B586B000AF0346B96012
:1017DC007A60FB7300237B61FFF742FF78617A68C4
:1017EC00B9687869FFF790FF024697F90F301146F8
:1017FC001846FFF75FFF00BF1837BD4680BD80B5A8
:10180C0082B000AF0346FB7197F907301846FFF71B
:10181C0035FF00BF0837BD4680BD80B582B000AF34
:10182C0078607868FFF7A2FF034618460837BD4674
:10183C0080BD000080B48BB000AF786039600023AD
:10184C007B6200233B6248E101227B6A02FA03F3CC
:10185C00FB613B681B68FA691340BB61BA69FB69A1
:10186C009A4240F037813B685B68A34A93425ED052
:10187C00A14A934275D8A14A934258D09F4A9342A9
:10188C006FD89F4A934252D09D4A934269D89D4A41
:10189C0093424CD09B4A934263D89B4A934246D086
:1018AC00994A93425DD8122B2AD8122B59D801A2EF
:1018BC0052F823F03B1900081519000827190008E5
:1018CC00691900086F1900086F1900086F190008D2
:1018DC006F1900086F1900086F1900086F190008BC
:1018EC006F1900086F1900086F1900086F190008AC
:1018FC006F1900086F1900081D190008311900082C
:10190C00824A934213D02CE03B68DB683B6229E0AF
:10191C003B68DB6804333B6224E03B68DB680833DC
:10192C003B621FE03B68DB680C333B621AE03B68B0
:10193C009B68002B02D104233B6213E03B689B683D
:10194C00012B05D108233B627B68FA691A6109E017
:10195C0008233B627B68FA695A6103E000233B620F
:10196C0000E000BFBB69FF2B01D87B6801E07B68FE
:10197C0004337B61BB69FF2B02D87B6A9B0002E0BE
:10198C007B6A083B9B003B617B691A680F213B69B2
:10199C0001FA03F3DB431A40396A3B6901FA03F39A
:1019AC001A437B691A603B685B6803F08053002B19
:1019BC0000F09080564B9B69554A43F001039361AC
:1019CC00534B9B6903F00103BB60BB68514A7B6AB4
:1019DC009B08023352F82330FB607B6A03F003034D
:1019EC009B000F2202FA03F3DB43FA681340FB60FF
:1019FC007B68494A93420DD07B68484A934207D092
:101A0C007B68474A934201D1022304E0032302E09E
:101A1C00012300E000237A6A02F003029200934053
:101A2C00FA681343FB603B497B6A9B080233FA68F4
:101A3C0041F823203B685B6803F48013002B06D02D
:101A4C00384B9A683749BB6913438B6006E0354BBA
:101A5C009A68BB69DB43334913408B603B685B6816
:101A6C0003F40013002B06D02E4BDA682D49BB690A
:101A7C001343CB6006E02B4BDA68BB69DB43294987
:101A8C001340CB603B685B6803F40033002B06D03B
:101A9C00244B5A682349BB6913434B6006E0214B26
:101AAC005A68BB69DB431F4913404B603B685B685A
:101ABC0003F48033002B06D01A4B1A681949BB6902
:101ACC0013430B6006E0174B1A68BB69DB431549DF
:101ADC0013400B607B6A01337B623B681A687B6A3C
:101AEC0022FA03F3002B7FF4AFAE00BF00BF2C37FC
:101AFC00BD4680BC704700BF0000321000003110A2
:101B0C000000221000002110000012100000111023
:101B1C00001002400000014000080140000C014090
:101B2C00001001400004014080B485B000AF786023
:101B3C000B467B807B689A687B881340002B02D015
:101B4C000123FB7301E00023FB73FB7B1846143766
:101B5C00BD4680BC704780B483B000AF78600B4644
:101B6C007B8013467B707B78002B03D07A887B6854
:101B7C001A6103E07B881A047B681A6100BF0C377A
:101B8C00BD4680BC704780B485B000AF78600B4612
:101B9C007B807B68DB68FB607A88FB6813401A04E7
:101BAC00FB68D9437B880B401A437B681A6100BFE2
:101BBC001437BD4680BC704780B586B000AF7860E6
:101BCC007B68002B01D101236CE27B681B6803F05E
:101BDC000103002B00F08780924B5B6803F00C0331
:101BEC00042B0CD08F4B5B6803F00C03082B12D129
:101BFC008C4B5B6803F48033B3F5803F0BD1894B7E
:101C0C001B6803F40033002B6CD07B685B68002BE3
:101C1C0068D1012346E27B685B68B3F5803F06D14F
:101C2C00804B1B687F4A43F4803313602EE07B6843
:101C3C005B68002B0CD17B4B1B687A4A23F48033F6
:101C4C001360784B1B68774A23F4802313601DE0E4
:101C5C007B685B68B3F5A02F0CD1724B1B68714A83
:101C6C0043F4802313606F4B1B686E4A43F480333C
:101C7C0013600BE06B4B1B686A4A23F480331360D0
:101C8C00684B1B68674A23F4802313607B685B688E
:101C9C00002B13D0FFF7B6FC386108E0FFF7B2FC5D
:101CAC0002463B69D31A642B01D90323FAE15D4B3D
:101CBC001B6803F40033002BF0D014E0FFF7A2FCF8
:101CCC00386108E0FFF79EFC02463B69D31A642B8F
:101CDC0001D90323E6E1534B1B6803F40033002BBB
:101CEC00F0D100E000BF7B681B6803F00203002BFF
:101CFC0063D04C4B5B6803F00C03002B0BD0494BAF
:101D0C005B6803F00C03082B1CD1464B5B6803F497
:101D1C008033002B16D1434B1B6803F00203002BBE
:101D2C0005D07B681B69012B01D00123BAE13D4B27
:101D3C001B6823F0F8027B685B69DB0039491343AD
:101D4C000B603AE07B681B69002B20D0364B0122DC
:101D5C001A60FFF757FC386108E0FFF753FC0246A6
:101D6C003B69D31A022B01D903239BE12D4B1B6832
:101D7C0003F00203002BF0D02A4B1B6823F0F8026F
:101D8C007B685B69DB00274913430B6015E0264B2E
:101D9C0000221A60FFF736FC386108E0FFF732FCCE
:101DAC0002463B69D31A022B01D903237AE11D4B5E
:101DBC001B6803F00203002BF0D17B681B6803F057
:101DCC000803002B3AD07B689B69002B19D0174B6A
:101DDC0001221A60FFF716FC386108E0FFF712FCCD
:101DEC0002463B69D31A022B01D903235AE10D4B4E
:101DFC005B6A03F00203002BF0D0012000F09AFA8A
:101E0C001CE00A4B00221A60FFF7FCFB38610FE064
:101E1C00FFF7F8FB02463B69D31A022B08D90323C0
:101E2C0040E100BF001002400000424280044242E8
:101E3C009E4B5B6A03F00203002BE9D17B681B68A5
:101E4C0003F00403002B00F0A6800023FB75974BD6
:101E5C00DB6903F08053002B0DD1944BDB69934A63
:101E6C0043F08053D361914BDB6903F08053BB602B
:101E7C00BB680123FB758E4B1B6803F48073002B2E
:101E8C0018D18B4B1B688A4A43F480731360FFF79D
:101E9C00B9FB386108E0FFF7B5FB02463B69D31A82
:101EAC00642B01D90323FDE0814B1B6803F4807381
:101EBC00002BF0D07B68DB68012B06D17B4B1B6AB7
:101ECC007A4A43F0010313622DE07B68DB68002B38
:101EDC000CD1764B1B6A754A23F001031362734BCA
:101EEC001B6A724A23F0040313621CE07B68DB68F4
:101EFC00052B0CD16D4B1B6A6C4A43F00403136227
:101F0C006A4B1B6A694A43F0010313620BE0674B8F
:101F1C001B6A664A23F001031362644B1B6A634A13
:101F2C0023F0040313627B68DB68002B15D0FFF7EA
:101F3C0069FB38610AE0FFF765FB02463B69D31A7F
:101F4C0041F28832934201D90323ABE0574B1B6A11
:101F5C0003F00203002BEED014E0FFF753FB3861C3
:101F6C000AE0FFF74FFB02463B69D31A41F2883275
:101F7C00934201D9032395E04C4B1B6A03F00203F7
:101F8C00002BEED1FB7D012B05D1484BDB69474A79
:101F9C0023F08053D3617B68DB69002B00F08180D8
:101FAC00424B5B6803F00C03082B61D07B68DB6948
:101FBC00022B46D13F4B00221A60FFF723FB3861FE
:101FCC0008E0FFF71FFB02463B69D31A022B01D92D
:101FDC00032367E0354B1B6803F00073002BF0D133
:101FEC007B681B6AB3F5803F08D1304B5B6823F4E8
:101FFC0000327B689B682D4913434B602B4B5B680D
:10200C0023F474127B68196A7B685B6A0B4327495B
:10201C0013434B60274B01221A60FFF7F3FA386128
:10202C0008E0FFF7EFFA02463B69D31A022B01D9FD
:10203C00032337E01D4B1B6803F00073002BF0D01B
:10204C002FE01C4B00221A60FFF7DCFA386108E025
:10205C00FFF7D8FA02463B69D31A022B01D90323A6
:10206C0020E0124B1B6803F00073002BF0D118E03A
:10207C007B68DB69012B01D1012313E00B4B5B68FF
:10208C00FB60FB6803F480327B681B6A9A4206D1C2
:10209C00FB6803F470127B685B6A9A4201D00123DF
:1020AC0000E0002318461837BD4680BD00100240E2
:1020BC00007000406000424280B584B000AF786090
:1020CC0039607B68002B01D10123D0E06A4B1B687F
:1020DC0003F007033A689A4210D9674B1B6823F048
:1020EC00070265493B6813430B60634B1B6803F0A5
:1020FC0007033A689A4201D00123B8E07B681B6859
:10210C0003F00203002B20D07B681B6803F0040350
:10211C00002B05D0594B5B68584A43F4E06353607D
:10212C007B681B6803F00803002B05D0534B5B68DE
:10213C00524A43F460535360504B5B6823F0F002F7
:10214C007B689B684D4913434B607B681B6803F0AD
:10215C000103002B40D07B685B68012B07D1474BF8
:10216C001B6803F40033002B15D101237FE07B683F
:10217C005B68022B07D1414B1B6803F00073002BEB
:10218C0009D1012373E03D4B1B6803F00203002BC4
:10219C0001D101236BE0394B5B6823F003027B68B0
:1021AC005B68364913434B60FFF72CFAF8600AE082
:1021BC00FFF728FA0246FB68D31A41F288329342A1
:1021CC0001D9032353E02D4B5B6803F00C027B68B1
:1021DC005B689B009A42EBD1274B1B6803F007030B
:1021EC003A689A4210D2244B1B6823F0070222490A
:1021FC003B6813430B60204B1B6803F007033A68E2
:10220C009A4201D0012332E07B681B6803F004037F
:10221C00002B08D0194B5B6823F4E0627B68DB6809
:10222C00164913434B607B681B6803F00803002BB3
:10223C0009D0124B5B6823F460527B681B69DB008E
:10224C000E4913434B6000F021F802460B4B5B68C0
:10225C001B0903F00F030A49CB5C22FA03F3094A6A
:10226C001360094B1B681846FFF78AF900231846C0
:10227C001037BD4680BD00BF002002400010024058
:10228C00582D00080C0000201400002080B487B0EA
:10229C0000AF0023FB600023BB6000237B610023A5
:1022AC007B6000233B611E4B5B68FB60FB6803F0AB
:1022BC000C03042B02D0082B03D027E0194B3B61F5
:1022CC0027E0FB689B0C03F00F03174AD35C7B6081
:1022DC00FB6803F48033002B10D0114B5B685B0C54
:1022EC0003F00103114AD35CBB607B680D4A02FB0F
:1022FC0003F2BB68B2FBF3F37B6104E07B680C4A2E
:10230C0002FB03F37B617B693B6102E0054B3B61A4
:10231C0000BF3B6918461C37BD4680BC704700BFE8
:10232C000010024000127A00682D0008782D000879
:10233C0000093D0080B485B000AF78600A4B1B6883
:10234C000A4AA2FB03235B0A7A6802FB03F3FB60D5
:10235C0000BFFB685A1EFA60002BF9D100BF00BF0A
:10236C001437BD4680BC70470C000020D34D621062
:10237C0080B582B000AF78607B68002B01D101235F
:10238C0041E07B6893F83D30DBB2002B06D17B68D3
:10239C00002283F83C207868FEF72EFF7B6802222F
:1023AC0083F83D207B681A687B6804331946104615
:1023BC0000F056FA7B68012283F846207B680122E4
:1023CC0083F83E207B68012283F83F207B68012242
:1023DC0083F840207B68012283F841207B6801222E
:1023EC0083F842207B68012283F843207B6801221A
:1023FC0083F844207B68012283F845207B68012206
:10240C0083F83D20002318460837BD4680BD0000E8
:10241C0080B485B000AF78607B6893F83D30DBB258
:10242C00012B01D0012335E07B68022283F83D208B
:10243C007B681B68DA687B681B6842F00102DA6013
:10244C007B681B68164A934209D07B681B68B3F102
:10245C00804F04D07B681B68124A934211D17B6871
:10246C001B689B6803F00703FB60FB68062B10D00E
:10247C007B681B681A687B681B6842F001021A6053
:10248C0007E07B681B681A687B681B6842F00102D6
:10249C001A60002318461437BD4680BC704700BF35
:1024AC00002C01400004004080B584B000AF78607F
:1024BC007B681B68DB68FB607B681B681B69BB6007
:1024CC00BB6803F00203002B20D0FB6803F002036F
:1024DC00002B1BD07B681B686FF002021A617B68B3
:1024EC0001221A777B681B689B6903F00303002B9E
:1024FC0003D0786800F098F905E0786800F08BF963
:10250C00786800F09AF97B6800221A77BB6803F0B0
:10251C000403002B20D0FB6803F00403002B1BD01A
:10252C007B681B686FF004021A617B6802221A77C1
:10253C007B681B689B6903F44073002B03D078689D
:10254C0000F072F905E0786800F065F9786800F041
:10255C0074F97B6800221A77BB6803F00803002B20
:10256C0020D0FB6803F00803002B1BD07B681B6892
:10257C006FF008021A617B6804221A777B681B686B
:10258C00DB6903F00303002B03D0786800F04CF9EF
:10259C0005E0786800F03FF9786800F04EF97B6848
:1025AC0000221A77BB6803F01003002B20D0FB68C5
:1025BC0003F01003002B1BD07B681B686FF010021C
:1025CC001A617B6808221A777B681B68DB6903F445
:1025DC004073002B03D0786800F026F905E078688A
:1025EC0000F019F9786800F028F97B6800221A7756
:1025FC00BB6803F00103002B0CD0FB6803F0010354
:10260C00002B07D07B681B686FF001021A61786899
:10261C00FEF7DEFBBB6803F08003002B0CD0FB68DD
:10262C0003F08003002B07D07B681B686FF08002DF
:10263C001A61786800F06FFABB6803F04003002B56
:10264C000CD0FB6803F04003002B07D07B681B68A1
:10265C006FF040021A61786800F0F8F8BB6803F07C
:10266C002003002B0CD0FB6803F02003002B07D0B9
:10267C007B681B686FF020021A61786800F042FAE0
:10268C0000BF1037BD4680BD80B584B000AF786008
:10269C0039600023FB737B6893F83C30012B01D12C
:1026AC000223B4E07B68012283F83C207B68022281
:1026BC0083F83D207B681B689B68BB60BB6823F07C
:1026CC007703BB60BB6823F47F43BB607B681B68EC
:1026DC00BA689A603B681B68B3F5005F3ED0B3F5EF
:1026EC00005F00F28780B3F5805F00F08680B3F561
:1026FC00805F7FD8702B1AD0702B7BD8602B50D07A
:10270C00602B77D8502B3CD0502B73D8402B58D003
:10271C00402B6FD8302B64D0302B6BD8202B60D053
:10272C00202B67D8002B5CD0102B5AD062E07B6832
:10273C0018683B6899683B685A683B68DB6800F02E
:10274C006AF97B681B689B68BB60BB6843F07703C6
:10275C00BB607B681B68BA689A604FE07B6818683E
:10276C003B6899683B685A683B68DB6800F053F932
:10277C007B681B689A687B681B6842F480429A608D
:10278C003CE07B6818683B6859683B68DB681A4614
:10279C0000F0CAF87B681B685021184600F021F93C
:1027AC002CE07B6818683B6859683B68DB681A4604
:1027BC0000F0E8F87B681B686021184600F011F9FE
:1027CC001CE07B6818683B6859683B68DB681A46F4
:1027DC0000F0AAF87B681B684021184600F001F94C
:1027EC000CE07B681A683B681B681946104600F0C1
:1027FC00F8F803E00123FB7300E000BF7B680122C3
:10280C0083F83D207B68002283F83C20FB7B184634
:10281C001037BD4680BD80B483B000AF786000BF78
:10282C000C37BD4680BC704780B483B000AF786075
:10283C0000BF0C37BD4680BC704780B483B000AF7E
:10284C00786000BF0C37BD4680BC704780B483B045
:10285C0000AF786000BF0C37BD4680BC70470000ED
:10286C0080B485B000AF786039607B681B68FB6012
:10287C007B682B4A934207D07B68B3F1804F03D01F
:10288C007B68284A934208D1FB6823F07003FB60F5
:10289C003B685B68FA681343FB607B68204A934291
:1028AC0007D07B68B3F1804F03D07B681D4A9342FD
:1028BC0008D1FB6823F44073FB603B68DB68FA6863
:1028CC001343FB60FB6823F080023B685B69134396
:1028DC00FB607B68FA681A603B689A687B68DA620E
:1028EC003B681A687B689A627B680D4A934203D1F5
:1028FC003B681A697B681A637B6801225A617B68A2
:10290C001B6903F00103002B05D07B681B6923F0C6
:10291C0001027B681A6100BF1437BD4680BC70474A
:10292C00002C01400004004080B487B000AFF86078
:10293C00B9607A60FB681B6A7B61FB681B6A23F0D9
:10294C000102FB681A62FB689B693B613B6923F0DF
:10295C00F0033B617B681B013A6913433B617B6964
:10296C0023F00A037B617A69BB6813437B61FB68C4
:10297C003A699A61FB687A691A6200BF1C37BD46D6
:10298C0080BC704780B487B000AFF860B9607A60E3
:10299C00FB681B6A7B61FB681B6A23F01002FB68F7
:1029AC001A62FB689B693B613B6923F470433B6192
:1029BC007B681B033A6913433B617B6923F0A003DB
:1029CC007B61BB681B017A6913437B61FB683A69C5
:1029DC009A61FB687A691A6200BF1C37BD4680BCDD
:1029EC00704780B485B000AF786039607B689B68B5
:1029FC00FB60FB6823F07003FB603A68FB681343D1
:102A0C0043F00703FB607B68FA689A6000BF1437D9
:102A1C00BD4680BC704780B487B000AFF860B96029
:102A2C007A603B60FB689B687B617B6923F47F4326
:102A3C007B613B681A027B681A43BB6813437A6953
:102A4C0013437B61FB687A699A6000BF1C37BD46F3
:102A5C0080BC704780B485B000AF786039607B680B
:102A6C0093F83C30012B01D1022341E07B68012219
:102A7C0083F83C207B68022283F83D207B681B682E
:102A8C005B68FB607B681B689B68BB60FB6823F022
:102A9C007003FB603B681B68FA681343FB607B6840
:102AAC001B68FA685A607B681B68144A934209D009
:102ABC007B681B68B3F1804F04D07B681B68104A9D
:102ACC0093420CD1BB6823F08003BB603B685B680E
:102ADC00BA681343BB607B681B68BA689A607B68F2
:102AEC00012283F83D207B68002283F83C200023E0
:102AFC0018461437BD4680BC704700BF002C0140FF
:102B0C000004004080B483B000AF786000BF0C3785
:102B1C00BD4680BC704780B483B000AF786000BF06
:102B2C000C37BD4680BC7047014B1868704700BF1E
:102B3C001C00002070B500260C4D0D4C641BA4101D
:102B4C00A64209D100F0F6F800260A4D0A4C641B87
:102B5C00A410A64205D170BD55F8043B9847013628
:102B6C00EEE755F8043B98470136F2E77C2D000858
:102B7C007C2D00087C2D0008802D0008024B01469E
:102B8C00186800F05FB800BF1C000020024B014623
:102B9C00186800F00BB800BF1C000020034602446C
:102BAC00934200D1704703F8011BF9E738B505468D
:102BBC00002943D051F8043C0C1F002BB8BFE4187B
:102BCC0000F0AAF81E4A1368104633B9636014600B
:102BDC002846BDE8384000F0A5B8A3420AD92168C0
:102BEC006218934201BF1A685B68521822606360D6
:102BFC000460EDE71A465B680BB1A342FAD9116881
:102C0C005018A0420BD12068014450188342116027
:102C1C00DED118685B68014411605360D8E702D9B3
:102C2C000C232B60D4E7206821188B4201BF196854
:102C3C005B680918216063605460C9E738BD00BF48
:102C4C00E0000020F8B5CD1C25F0030508350C2D4F
:102C5C0038BF0C25002D064601DBA94203D90C23F5
:102C6C0033600020F8BD00F057F821490A6814467B
:102C7C009CB9204F3B6823B92146304600F03CF804
:102C8C0038602946304600F037F8431C23D10C231A
:102C9C003046336000F046F8E3E723685B1B17D43B
:102CAC000B2B03D923601C44256004E06368A2420B
:102CBC000CBF0B605360304600F034F804F10B008D
:102CCC00231D20F00700C21ACCD01B1AA350C9E751
:102CDC0022466468CCE7C41C24F00304A042E3D071
:102CEC00211A304600F008F80130DDD1CFE700BFE3
:102CFC00E0000020E400002038B50023054D044618
:102D0C0008462B60FEF7CEFA431C02D12B6803B1A8
:102D1C00236038BDE0010020014800F009B800BF75
:102D2C00E8010020014800F004B800BFE8010020D1
:102D3C0070477047F8B500BFF8BC08BC9E4670479A
:0C2D4C00F8B500BFF8BC08BC9E467047FC
:102D58000000000000000000010203040607080943
:102D680002030405060708090A0B0C0D0E0F1010C4
:042D78000102000054
:042D7C003101000819
:042D80000D01000839
:102D840003000000020000000500000000127A00A9
:102D940001000000100000000100000020000020DD
:102DA400000000000000000000000000000000001F
:102DB400000000000000000000000000000000000F
:102DC40000000000000000000000000000000000FF
:102DD40000000000000000000000000000000000EF
:102DE40000000000000000000000000000000000DF
:102DF40000000000000000000000000000000000CF
:0400000508001515C5
:00000001FF
